{"abi":[{"type":"constructor","inputs":[{"name":"_tokenAddress","type":"address","internalType":"address"}],"stateMutability":"nonpayable"},{"type":"function","name":"ADMIN_ROLE","inputs":[],"outputs":[{"name":"","type":"bytes32","internalType":"bytes32"}],"stateMutability":"view"},{"type":"function","name":"DEFAULT_ADMIN_ROLE","inputs":[],"outputs":[{"name":"","type":"bytes32","internalType":"bytes32"}],"stateMutability":"view"},{"type":"function","name":"beneficiarySchedules","inputs":[{"name":"","type":"address","internalType":"address"},{"name":"","type":"uint256","internalType":"uint256"}],"outputs":[{"name":"","type":"uint256","internalType":"uint256"}],"stateMutability":"view"},{"type":"function","name":"createBatchVestingSchedules","inputs":[{"name":"_params","type":"tuple[]","internalType":"struct DIAMVesting.BatchVestingParams[]","components":[{"name":"beneficiary","type":"address","internalType":"address"},{"name":"totalAmount","type":"uint256","internalType":"uint256"},{"name":"cliffPeriod","type":"uint256","internalType":"uint256"},{"name":"vestingPeriod","type":"uint256","internalType":"uint256"},{"name":"vestingType","type":"uint8","internalType":"enum DIAMVesting.VestingType"},{"name":"releasePercentage","type":"uint256","internalType":"uint256"}]}],"outputs":[],"stateMutability":"nonpayable"},{"type":"function","name":"diamToken","inputs":[],"outputs":[{"name":"","type":"address","internalType":"contract IERC20"}],"stateMutability":"view"},{"type":"function","name":"getBeneficiarySchedules","inputs":[{"name":"_beneficiary","type":"address","internalType":"address"}],"outputs":[{"name":"","type":"uint256[]","internalType":"uint256[]"}],"stateMutability":"view"},{"type":"function","name":"getRoleAdmin","inputs":[{"name":"role","type":"bytes32","internalType":"bytes32"}],"outputs":[{"name":"","type":"bytes32","internalType":"bytes32"}],"stateMutability":"view"},{"type":"function","name":"grantRole","inputs":[{"name":"role","type":"bytes32","internalType":"bytes32"},{"name":"account","type":"address","internalType":"address"}],"outputs":[],"stateMutability":"nonpayable"},{"type":"function","name":"hasRole","inputs":[{"name":"role","type":"bytes32","internalType":"bytes32"},{"name":"account","type":"address","internalType":"address"}],"outputs":[{"name":"","type":"bool","internalType":"bool"}],"stateMutability":"view"},{"type":"function","name":"paused","inputs":[],"outputs":[{"name":"","type":"bool","internalType":"bool"}],"stateMutability":"view"},{"type":"function","name":"processTokenReleases","inputs":[{"name":"_scheduleIds","type":"uint256[]","internalType":"uint256[]"}],"outputs":[],"stateMutability":"nonpayable"},{"type":"function","name":"renounceRole","inputs":[{"name":"role","type":"bytes32","internalType":"bytes32"},{"name":"callerConfirmation","type":"address","internalType":"address"}],"outputs":[],"stateMutability":"nonpayable"},{"type":"function","name":"revokeRole","inputs":[{"name":"role","type":"bytes32","internalType":"bytes32"},{"name":"account","type":"address","internalType":"address"}],"outputs":[],"stateMutability":"nonpayable"},{"type":"function","name":"supportsInterface","inputs":[{"name":"interfaceId","type":"bytes4","internalType":"bytes4"}],"outputs":[{"name":"","type":"bool","internalType":"bool"}],"stateMutability":"view"},{"type":"function","name":"vestingSchedules","inputs":[{"name":"","type":"uint256","internalType":"uint256"}],"outputs":[{"name":"scheduleId","type":"uint256","internalType":"uint256"},{"name":"beneficiary","type":"address","internalType":"address"},{"name":"totalAmount","type":"uint256","internalType":"uint256"},{"name":"cliffPeriod","type":"uint256","internalType":"uint256"},{"name":"vestingPeriod","type":"uint256","internalType":"uint256"},{"name":"vestingType","type":"uint8","internalType":"enum DIAMVesting.VestingType"},{"name":"releasePercentage","type":"uint256","internalType":"uint256"},{"name":"startTime","type":"uint256","internalType":"uint256"},{"name":"releasedAmount","type":"uint256","internalType":"uint256"},{"name":"isActive","type":"bool","internalType":"bool"},{"name":"lastProcessedDay","type":"uint256","internalType":"uint256"}],"stateMutability":"view"},{"type":"event","name":"Paused","inputs":[{"name":"account","type":"address","indexed":false,"internalType":"address"}],"anonymous":false},{"type":"event","name":"RoleAdminChanged","inputs":[{"name":"role","type":"bytes32","indexed":true,"internalType":"bytes32"},{"name":"previousAdminRole","type":"bytes32","indexed":true,"internalType":"bytes32"},{"name":"newAdminRole","type":"bytes32","indexed":true,"internalType":"bytes32"}],"anonymous":false},{"type":"event","name":"RoleGranted","inputs":[{"name":"role","type":"bytes32","indexed":true,"internalType":"bytes32"},{"name":"account","type":"address","indexed":true,"internalType":"address"},{"name":"sender","type":"address","indexed":true,"internalType":"address"}],"anonymous":false},{"type":"event","name":"RoleRevoked","inputs":[{"name":"role","type":"bytes32","indexed":true,"internalType":"bytes32"},{"name":"account","type":"address","indexed":true,"internalType":"address"},{"name":"sender","type":"address","indexed":true,"internalType":"address"}],"anonymous":false},{"type":"event","name":"TokensReleased","inputs":[{"name":"scheduleId","type":"uint256","indexed":true,"internalType":"uint256"},{"name":"beneficiary","type":"address","indexed":true,"internalType":"address"},{"name":"amount","type":"uint256","indexed":false,"internalType":"uint256"}],"anonymous":false},{"type":"event","name":"Unpaused","inputs":[{"name":"account","type":"address","indexed":false,"internalType":"address"}],"anonymous":false},{"type":"event","name":"VestingScheduleCreated","inputs":[{"name":"scheduleId","type":"uint256","indexed":true,"internalType":"uint256"},{"name":"beneficiary","type":"address","indexed":true,"internalType":"address"},{"name":"totalAmount","type":"uint256","indexed":false,"internalType":"uint256"},{"name":"cliffPeriod","type":"uint256","indexed":false,"internalType":"uint256"},{"name":"vestingPeriod","type":"uint256","indexed":false,"internalType":"uint256"},{"name":"vestingType","type":"uint8","indexed":false,"internalType":"enum DIAMVesting.VestingType"},{"name":"releasePercentage","type":"uint256","indexed":false,"internalType":"uint256"}],"anonymous":false},{"type":"event","name":"VestingScheduleRevoked","inputs":[{"name":"scheduleId","type":"uint256","indexed":true,"internalType":"uint256"},{"name":"beneficiary","type":"address","indexed":true,"internalType":"address"},{"name":"amount","type":"uint256","indexed":false,"internalType":"uint256"}],"anonymous":false},{"type":"error","name":"AccessControlBadConfirmation","inputs":[]},{"type":"error","name":"AccessControlUnauthorizedAccount","inputs":[{"name":"account","type":"address","internalType":"address"},{"name":"neededRole","type":"bytes32","internalType":"bytes32"}]},{"type":"error","name":"EnforcedPause","inputs":[]},{"type":"error","name":"ExpectedPause","inputs":[]},{"type":"error","name":"ReentrancyGuardReentrantCall","inputs":[]},{"type":"error","name":"SafeERC20FailedOperation","inputs":[{"name":"token","type":"address","internalType":"address"}]}],"bytecode":{"object":"0x6080346100dc57601f610f1838819003918201601f19168301916001600160401b038311848410176100e0578084926020946040528339810103126100dc57516001600160a01b038116908190036100dc5760015f5560ff19600154166001556001600455801561009757600380546001600160a01b031916919091179055610087336100f4565b50604051610d7a908161017e8239f35b60405162461bcd60e51b815260206004820152601c60248201527f546f6b656e20616464726573732063616e6e6f74206265207a65726f000000006044820152606490fd5b5f80fd5b634e487b7160e01b5f52604160045260245ffd5b6001600160a01b0381165f9081525f516020610ef85f395f51905f52602052604090205460ff16610178576001600160a01b03165f8181525f516020610ef85f395f51905f5260205260408120805460ff191660011790553391907f2f8788117e7eff1d82e926ec794901d17c78024a50270940304540a733656f0d8180a4600190565b505f9056fe6080806040526004361015610012575f80fd5b5f3560e01c90816301ffc9a71461093b57508063248a9ca3146109085780632f2ff15d146108ca57806336568abe1461088657806346ca42411461082e5780635c975abb1461080c5780636d3cbe211461075b5780636e184e7f1461073357806375b238fc146106f95780638fdd511e1461064557806391d14854146105fc578063a217fddf146105e2578063c140a499146102b2578063d547741f1461026d5763ed38c9ac146100c1575f80fd5b346102695760203660031901126102695760043567ffffffffffffffff811161026957366023820112156102695780600401359067ffffffffffffffff8211610269573660248360051b830101116102695761011b610bdb565b60ff6001541661025a5761012d610a22565b5f5b828110156102545760248160051b830101355f52600560205260405f209060ff600983015416156102195781610166600193610c8a565b9081610175575b50500161012f565b60088101610184838254610bf9565b9055620151804204600a8201557fa6c812047c4dc10f52f9e7943b1b3dfafae864d5e0d4ded081bbbde69dd6ff0d6020858060a01b0360035416926101ff87820194888060a01b03865416906040519163a9059cbb60e01b868401526024830152876044830152604482526101fa6064836109f0565b610c1a565b5492868060a01b0390541693604051908152a35f8061016d565b60405162461bcd60e51b81526020600482015260136024820152725363686564756c65206e6f742061637469766560681b6044820152606490fd5b60015f55005b63d93c066560e01b5f5260045ffd5b5f80fd5b34610269576040366003190112610269576102b060043561028c61098e565b906102ab6102a6825f526002602052600160405f20015490565b610a91565b610b57565b005b346102695760203660031901126102695760043567ffffffffffffffff8111610269573660238201121561026957806004013567ffffffffffffffff81116102695760248201916024369160c0840201011161026957610310610a22565b610318610bdb565b5f805b8282106105bf576003546040516323b872dd60e01b602082015233602482015230604482015260648082019390935291825261036692506001600160a01b03166101fa6084836109f0565b5f5b8181106103755760015f55005b610380818385610a12565b906004545f1981146105ab576001810160045561039c83610c06565b9060208401359160408501359460608101359560808201359260028410156102695760405160a084013591610160820167ffffffffffffffff81118382101761058357604052868252602082019060018060a01b03168152866040830191898352606084019286845260808501938d855260a08601948a865260c087019088825260e08801924284526101008901945f86526101208a0196600188526101408b01985f8a525f52600560205260405f209a518b5560018b019060018060a01b039051166bffffffffffffffffffffffff60a01b8254161790555160028a015551600389015551600488015560058701955195600287101561059757600a9660ff80198354169116179055516006870155516007860155516008850155600984019051151560ff801983541691161790555191015560018060a01b036104e084610c06565b165f52600660205260405f20805494680100000000000000008610156105835760019961055560a09661053c89610570968f7fbeecc780efa76a91b345deda9fe641ddbf40ee12dd86c41c78300cdc29d94fde9c0181556109ba565b81549060031b908c821b915f19901b1916179055610c06565b94604051998a5260208a0152604089015260608801906109e3565b60808601528680831b031693a301610368565b634e487b7160e01b5f52604160045260245ffd5b634e487b7160e01b5f52602160045260245ffd5b634e487b7160e01b5f52601160045260245ffd5b6105da60019160206105d2858789610a12565b013590610bf9565b91019061031b565b34610269575f3660031901126102695760206040515f8152f35b346102695760403660031901126102695761061561098e565b6004355f52600260205260405f209060018060a01b03165f52602052602060ff60405f2054166040519015158152f35b34610269576020366003190112610269576001600160a01b036106666109a4565b165f52600660205260405f20604051806020835491828152019081935f5260205f20905f5b8181106106e357505050816106a19103826109f0565b604051918291602083019060208452518091526040830191905f5b8181106106ca575050500390f35b82518452859450602093840193909201916001016106bc565b825484526020909301926001928301920161068b565b34610269575f3660031901126102695760206040517fa49807205ce4d355092ef5a8a18f56e8913cf4a201fbe287825b095693c217758152f35b34610269575f366003190112610269576003546040516001600160a01b039091168152602090f35b34610269576020366003190112610269576004355f52600560205261016060405f2080549060018060a01b03600182015416906002810154600382015460048301546107ec60ff600586015416600686015492600787015494600888015496600a60ff60098b015416990154996040519b8c5260208c015260408b015260608a0152608089015260a08801906109e3565b60c086015260e08501526101008401521515610120830152610140820152f35b34610269575f36600319011261026957602060ff600154166040519015158152f35b34610269576040366003190112610269576108476109a4565b6001600160a01b03165f9081526006602052604090208054602435919082101561026957602091610877916109ba565b90549060031b1c604051908152f35b346102695760403660031901126102695761089f61098e565b336001600160a01b038216036108bb576102b090600435610b57565b63334bd91960e11b5f5260045ffd5b34610269576040366003190112610269576102b06004356108e961098e565b906109036102a6825f526002602052600160405f20015490565b610acb565b346102695760203660031901126102695760206109336004355f526002602052600160405f20015490565b604051908152f35b34610269576020366003190112610269576004359063ffffffff60e01b821680920361026957602091637965db0b60e01b811490811561097d575b5015158152f35b6301ffc9a760e01b14905083610976565b602435906001600160a01b038216820361026957565b600435906001600160a01b038216820361026957565b80548210156109cf575f5260205f2001905f90565b634e487b7160e01b5f52603260045260245ffd5b9060028210156105975752565b90601f8019910116810190811067ffffffffffffffff82111761058357604052565b91908110156109cf5760c0020190565b335f9081527fe5ebfa64fca8d502a8e50c1edffd2c31ef4dad5b396e65d9f397fb028f74abc5602052604090205460ff1615610a5a57565b63e2517d3f60e01b5f52336004527fa49807205ce4d355092ef5a8a18f56e8913cf4a201fbe287825b095693c2177560245260445ffd5b5f81815260026020908152604080832033845290915290205460ff1615610ab55750565b63e2517d3f60e01b5f523360045260245260445ffd5b5f8181526002602090815260408083206001600160a01b038616845290915290205460ff16610b51575f8181526002602090815260408083206001600160a01b0395909516808452949091528120805460ff19166001179055339291907f2f8788117e7eff1d82e926ec794901d17c78024a50270940304540a733656f0d9080a4600190565b50505f90565b5f8181526002602090815260408083206001600160a01b038616845290915290205460ff1615610b51575f8181526002602090815260408083206001600160a01b0395909516808452949091528120805460ff19169055339291907ff6391f5c32d9c69d2a47ea670b442974b53935d1edc7fd64eb21e047a839171b9080a4600190565b60025f5414610bea5760025f55565b633ee5aeb560e01b5f5260045ffd5b919082018092116105ab57565b356001600160a01b03811681036102695790565b905f602091828151910182855af115610c72575f513d610c6957506001600160a01b0381163b155b610c495750565b635274afe760e01b5f9081526001600160a01b0391909116600452602490fd5b60011415610c42565b6040513d5f823e3d90fd5b919082039182116105ab57565b600781015490600381015462278d0081029080820462278d0014901517156105ab57610cb69083610bf9565b4210610b515760048101549162278d0083029280840462278d0014901517156105ab57610ce39042610c7d565b82811015610d2e5760028201548181029181830414901517156105ab578215610d1a57610d17926008910491015490610c7d565b90565b634e487b7160e01b5f52601260045260245ffd5b50610d1791506008600282015491015490610c7d56fea2646970667358221220677847272e79315c220a703fb59ed63c84b1c8acf7dca1b039d408816895661564736f6c634300081c0033ac33ff75c19e70fe83507db0d683fd3465c996598dc972688b7ace676c89077b","linkReferences":{}},"methodIdentifiers":{"ADMIN_ROLE()":"75b238fc","DEFAULT_ADMIN_ROLE()":"a217fddf","beneficiarySchedules(address,uint256)":"46ca4241","createBatchVestingSchedules((address,uint256,uint256,uint256,uint8,uint256)[])":"c140a499","diamToken()":"6e184e7f","getBeneficiarySchedules(address)":"8fdd511e","getRoleAdmin(bytes32)":"248a9ca3","grantRole(bytes32,address)":"2f2ff15d","hasRole(bytes32,address)":"91d14854","paused()":"5c975abb","processTokenReleases(uint256[])":"ed38c9ac","renounceRole(bytes32,address)":"36568abe","revokeRole(bytes32,address)":"d547741f","supportsInterface(bytes4)":"01ffc9a7","vestingSchedules(uint256)":"6d3cbe21"},"id":42}