{"abi":[{"type":"constructor","inputs":[{"name":"_tokenAddress","type":"address","internalType":"address"}],"stateMutability":"nonpayable"},{"type":"function","name":"ADMIN_ROLE","inputs":[],"outputs":[{"name":"","type":"bytes32","internalType":"bytes32"}],"stateMutability":"view"},{"type":"function","name":"DEFAULT_ADMIN_ROLE","inputs":[],"outputs":[{"name":"","type":"bytes32","internalType":"bytes32"}],"stateMutability":"view"},{"type":"function","name":"beneficiarySchedules","inputs":[{"name":"","type":"address","internalType":"address"},{"name":"","type":"uint256","internalType":"uint256"}],"outputs":[{"name":"","type":"uint256","internalType":"uint256"}],"stateMutability":"view"},{"type":"function","name":"calculateReleasableAmount","inputs":[{"name":"_scheduleId","type":"uint256","internalType":"uint256"}],"outputs":[{"name":"","type":"uint256","internalType":"uint256"}],"stateMutability":"view"},{"type":"function","name":"createBatchVestingSchedules","inputs":[{"name":"_params","type":"tuple[]","internalType":"struct DIAMVesting.BatchVestingParams[]","components":[{"name":"beneficiary","type":"address","internalType":"address"},{"name":"totalAmount","type":"uint256","internalType":"uint256"},{"name":"cliffPeriod","type":"uint256","internalType":"uint256"},{"name":"vestingPeriod","type":"uint256","internalType":"uint256"},{"name":"vestingType","type":"uint8","internalType":"enum DIAMVesting.VestingType"},{"name":"releasePercentage","type":"uint256","internalType":"uint256"}]}],"outputs":[],"stateMutability":"nonpayable"},{"type":"function","name":"diamToken","inputs":[],"outputs":[{"name":"","type":"address","internalType":"contract IERC20"}],"stateMutability":"view"},{"type":"function","name":"getActiveSchedules","inputs":[],"outputs":[{"name":"","type":"uint256[]","internalType":"uint256[]"}],"stateMutability":"view"},{"type":"function","name":"getBeneficiarySchedules","inputs":[{"name":"_beneficiary","type":"address","internalType":"address"}],"outputs":[{"name":"","type":"uint256[]","internalType":"uint256[]"}],"stateMutability":"view"},{"type":"function","name":"getRoleAdmin","inputs":[{"name":"role","type":"bytes32","internalType":"bytes32"}],"outputs":[{"name":"","type":"bytes32","internalType":"bytes32"}],"stateMutability":"view"},{"type":"function","name":"getVestingSchedule","inputs":[{"name":"_scheduleId","type":"uint256","internalType":"uint256"}],"outputs":[{"name":"","type":"tuple","internalType":"struct DIAMVesting.VestingSchedule","components":[{"name":"scheduleId","type":"uint256","internalType":"uint256"},{"name":"beneficiary","type":"address","internalType":"address"},{"name":"totalAmount","type":"uint256","internalType":"uint256"},{"name":"cliffPeriod","type":"uint256","internalType":"uint256"},{"name":"vestingPeriod","type":"uint256","internalType":"uint256"},{"name":"vestingType","type":"uint8","internalType":"enum DIAMVesting.VestingType"},{"name":"releasePercentage","type":"uint256","internalType":"uint256"},{"name":"startTime","type":"uint256","internalType":"uint256"},{"name":"releasedAmount","type":"uint256","internalType":"uint256"},{"name":"isActive","type":"bool","internalType":"bool"},{"name":"lastProcessedDay","type":"uint256","internalType":"uint256"}]}],"stateMutability":"view"},{"type":"function","name":"grantRole","inputs":[{"name":"role","type":"bytes32","internalType":"bytes32"},{"name":"account","type":"address","internalType":"address"}],"outputs":[],"stateMutability":"nonpayable"},{"type":"function","name":"hasRole","inputs":[{"name":"role","type":"bytes32","internalType":"bytes32"},{"name":"account","type":"address","internalType":"address"}],"outputs":[{"name":"","type":"bool","internalType":"bool"}],"stateMutability":"view"},{"type":"function","name":"partialRevoke","inputs":[{"name":"_scheduleId","type":"uint256","internalType":"uint256"},{"name":"_amount","type":"uint256","internalType":"uint256"}],"outputs":[],"stateMutability":"nonpayable"},{"type":"function","name":"pause","inputs":[],"outputs":[],"stateMutability":"nonpayable"},{"type":"function","name":"paused","inputs":[],"outputs":[{"name":"","type":"bool","internalType":"bool"}],"stateMutability":"view"},{"type":"function","name":"processTokenReleases","inputs":[{"name":"_scheduleIds","type":"uint256[]","internalType":"uint256[]"}],"outputs":[],"stateMutability":"nonpayable"},{"type":"function","name":"recoverToken","inputs":[{"name":"_token","type":"address","internalType":"address"},{"name":"_amount","type":"uint256","internalType":"uint256"}],"outputs":[],"stateMutability":"nonpayable"},{"type":"function","name":"renounceRole","inputs":[{"name":"role","type":"bytes32","internalType":"bytes32"},{"name":"callerConfirmation","type":"address","internalType":"address"}],"outputs":[],"stateMutability":"nonpayable"},{"type":"function","name":"revokeRole","inputs":[{"name":"role","type":"bytes32","internalType":"bytes32"},{"name":"account","type":"address","internalType":"address"}],"outputs":[],"stateMutability":"nonpayable"},{"type":"function","name":"revokeSchedule","inputs":[{"name":"_scheduleId","type":"uint256","internalType":"uint256"}],"outputs":[],"stateMutability":"nonpayable"},{"type":"function","name":"supportsInterface","inputs":[{"name":"interfaceId","type":"bytes4","internalType":"bytes4"}],"outputs":[{"name":"","type":"bool","internalType":"bool"}],"stateMutability":"view"},{"type":"function","name":"unpause","inputs":[],"outputs":[],"stateMutability":"nonpayable"},{"type":"function","name":"vestingSchedules","inputs":[{"name":"","type":"uint256","internalType":"uint256"}],"outputs":[{"name":"scheduleId","type":"uint256","internalType":"uint256"},{"name":"beneficiary","type":"address","internalType":"address"},{"name":"totalAmount","type":"uint256","internalType":"uint256"},{"name":"cliffPeriod","type":"uint256","internalType":"uint256"},{"name":"vestingPeriod","type":"uint256","internalType":"uint256"},{"name":"vestingType","type":"uint8","internalType":"enum DIAMVesting.VestingType"},{"name":"releasePercentage","type":"uint256","internalType":"uint256"},{"name":"startTime","type":"uint256","internalType":"uint256"},{"name":"releasedAmount","type":"uint256","internalType":"uint256"},{"name":"isActive","type":"bool","internalType":"bool"},{"name":"lastProcessedDay","type":"uint256","internalType":"uint256"}],"stateMutability":"view"},{"type":"event","name":"PartialRevocation","inputs":[{"name":"scheduleId","type":"uint256","indexed":true,"internalType":"uint256"},{"name":"beneficiary","type":"address","indexed":true,"internalType":"address"},{"name":"amount","type":"uint256","indexed":false,"internalType":"uint256"}],"anonymous":false},{"type":"event","name":"Paused","inputs":[{"name":"account","type":"address","indexed":false,"internalType":"address"}],"anonymous":false},{"type":"event","name":"RoleAdminChanged","inputs":[{"name":"role","type":"bytes32","indexed":true,"internalType":"bytes32"},{"name":"previousAdminRole","type":"bytes32","indexed":true,"internalType":"bytes32"},{"name":"newAdminRole","type":"bytes32","indexed":true,"internalType":"bytes32"}],"anonymous":false},{"type":"event","name":"RoleGranted","inputs":[{"name":"role","type":"bytes32","indexed":true,"internalType":"bytes32"},{"name":"account","type":"address","indexed":true,"internalType":"address"},{"name":"sender","type":"address","indexed":true,"internalType":"address"}],"anonymous":false},{"type":"event","name":"RoleRevoked","inputs":[{"name":"role","type":"bytes32","indexed":true,"internalType":"bytes32"},{"name":"account","type":"address","indexed":true,"internalType":"address"},{"name":"sender","type":"address","indexed":true,"internalType":"address"}],"anonymous":false},{"type":"event","name":"TokensReleased","inputs":[{"name":"scheduleId","type":"uint256","indexed":true,"internalType":"uint256"},{"name":"beneficiary","type":"address","indexed":true,"internalType":"address"},{"name":"amount","type":"uint256","indexed":false,"internalType":"uint256"}],"anonymous":false},{"type":"event","name":"Unpaused","inputs":[{"name":"account","type":"address","indexed":false,"internalType":"address"}],"anonymous":false},{"type":"event","name":"VestingScheduleCreated","inputs":[{"name":"scheduleId","type":"uint256","indexed":true,"internalType":"uint256"},{"name":"beneficiary","type":"address","indexed":true,"internalType":"address"},{"name":"totalAmount","type":"uint256","indexed":false,"internalType":"uint256"},{"name":"cliffPeriod","type":"uint256","indexed":false,"internalType":"uint256"},{"name":"vestingPeriod","type":"uint256","indexed":false,"internalType":"uint256"},{"name":"vestingType","type":"uint8","indexed":false,"internalType":"enum DIAMVesting.VestingType"},{"name":"releasePercentage","type":"uint256","indexed":false,"internalType":"uint256"}],"anonymous":false},{"type":"event","name":"VestingScheduleRevoked","inputs":[{"name":"scheduleId","type":"uint256","indexed":true,"internalType":"uint256"},{"name":"beneficiary","type":"address","indexed":true,"internalType":"address"},{"name":"amount","type":"uint256","indexed":false,"internalType":"uint256"}],"anonymous":false},{"type":"error","name":"AccessControlBadConfirmation","inputs":[]},{"type":"error","name":"AccessControlUnauthorizedAccount","inputs":[{"name":"account","type":"address","internalType":"address"},{"name":"neededRole","type":"bytes32","internalType":"bytes32"}]},{"type":"error","name":"EnforcedPause","inputs":[]},{"type":"error","name":"ExpectedPause","inputs":[]},{"type":"error","name":"ReentrancyGuardReentrantCall","inputs":[]},{"type":"error","name":"SafeERC20FailedOperation","inputs":[{"name":"token","type":"address","internalType":"address"}]}],"bytecode":{"object":"0x6080346100dc57601f6120cf38819003918201601f19168301916001600160401b038311848410176100e0578084926020946040528339810103126100dc57516001600160a01b038116908190036100dc5760015f5560ff19600154166001556001600455801561009757600380546001600160a01b031916919091179055610087336100f4565b50604051611f31908161017e8239f35b60405162461bcd60e51b815260206004820152601c60248201527f546f6b656e20616464726573732063616e6e6f74206265207a65726f000000006044820152606490fd5b5f80fd5b634e487b7160e01b5f52604160045260245ffd5b6001600160a01b0381165f9081525f5160206120af5f395f51905f52602052604090205460ff16610178576001600160a01b03165f8181525f5160206120af5f395f51905f5260205260408120805460ff191660011790553391907f2f8788117e7eff1d82e926ec794901d17c78024a50270940304540a733656f0d8180a4600190565b505f9056fe6080806040526004361015610012575f80fd5b5f3560e01c90816301ffc9a714611159575080630b35a4b014611063578063248a9ca3146110385780632f2ff15d14610ffa57806335060e8f14610fd457806336568abe14610f905780633f4ba83a14610f2a57806346ca424114610ed25780635c975abb14610eb05780636d3cbe2114610dff5780636e184e7f14610dd757806375b238fc14610d9d5780638456cb5914610d455780638fdd511e14610cc357806391d1485414610c7a5780639657720614610b5e578063a217fddf14610b44578063a5d94c131461098c578063b29a8140146108bc578063beb8f8831461074a578063c140a499146101ee578063d547741f146101a95763ed38c9ac14610119575f80fd5b346101a55760203660031901126101a55760043567ffffffffffffffff81116101a557366023820112156101a557806004013567ffffffffffffffff81116101a5573660248260051b840101116101a557610172611b15565b61017a611b33565b5f5b8181101561019f5760019061019960248260051b86010135611b5b565b0161017c565b60015f55005b5f80fd5b346101a55760403660031901126101a5576101ec6004356101c86111e5565b906101e76101e2825f526002602052600160405f20015490565b6118c3565b611a54565b005b346101a55760203660031901126101a55760043567ffffffffffffffff81116101a557366023820112156101a557806004013567ffffffffffffffff81116101a55760248201916024369160c084020101116101a55761024c611854565b610254611b15565b5f805b8282106106e7576003546040516323b872dd60e01b60208201523360248201523060448201526064808201939093529182526102a792506001600160a01b03166102a2608483611272565b611e2a565b5f5b8181106102b65760015f55005b6102c1818385611844565b356001600160a01b03811691908290036101a55760206102e2828587611844565b01359160406102f2838688611844565b0135926060610302848789611844565b013593608061031285888a611844565b013560028110156101a55760a061032a86898b611844565b01359284156106975780156106465786156105f357831515806105e8575b156105a3576004549361035a85611233565b60045560405161036981611255565b85815260208101878152866040830191858352606084019288845260808501938d855260a086019461039b8a87611838565b60c087019088825260e08801924284526101008901945f86526101208a0196600188526101408b01985f8a525f52600560205260405f209a518b5560018b019060018060a01b039051166bffffffffffffffffffffffff60a01b8254161790555160028a015551600389015551600488015560058701955195600287101561058f57600a9660ff80198354169116179055516006870155516007860155516008850155600984019051151560ff8019835416911617905551910155845f5260056020526104e7600760405f20015460405190610478608083611272565b605182527f203c202d2d2d2d2d2d2d2d2d2d2d2d2d2d2d2d2d2d2d2d2d2d2d2d2d7374617260208301527f742074696d65207365742d2d2d2d2d2d2d2d2d2d2d2d2d2d2d2d2d2d2d2d2d2d6040830152702d2d2d2d2d2d2d2d2d2d2d2d2d2d2d2d2d60781b6060830152611eb1565b855f52600660205260405f20928354906801000000000000000082101561057b576001997fbeecc780efa76a91b345deda9fe641ddbf40ee12dd86c41c78300cdc29d94fde966105418460a0988e61056f97018155611211565b81549060031b908b821b915f19901b1916179055604051958652602086015260408501526060840190611226565b6080820152a3016102a9565b634e487b7160e01b5f52604160045260245ffd5b634e487b7160e01b5f52602160045260245ffd5b60405162461bcd60e51b815260206004820152601a60248201527f496e76616c69642072656c656173652070657263656e746167650000000000006044820152606490fd5b506064841115610348565b60405162461bcd60e51b815260206004820152602560248201527f56657374696e6720706572696f64206d75737420626520677265617465722074604482015264068616e20360dc1b6064820152608490fd5b60405162461bcd60e51b815260206004820152602360248201527f546f74616c20616d6f756e74206d75737420626520677265617465722074686160448201526206e20360ec1b6064820152608490fd5b60405162461bcd60e51b815260206004820152602260248201527f42656e65666963696172792063616e6e6f74206265207a65726f206164647265604482015261737360f01b6064820152608490fd5b6107009060206106f8848688611844565b013590611a2b565b901561071157600190910190610257565b60405162461bcd60e51b81526020600482015260116024820152704164646974696f6e206f766572666c6f7760781b6044820152606490fd5b346101a55760203660031901126101a5575f61014060405161076b81611255565b8281528260208201528260408201528260608201528260808201528260a08201528260c08201528260e0820152826101008201528261012082015201526004355f52600560205261016060405f20604051906107c682611255565b8054825260018060a01b03600182015416906020830191825260028101546040840190815260038201546060850190815260048301546080860190815261089760ff60058601541661081c60a089019182611838565b60068601549260c0890193845260078701549460e08a019586526008880154966101008b01978852600a60ff60098b015416996101208d019a15158b520154996101408c019a8b526040519b518c5260018060a01b0390511660208c01525160408b01525160608a01525160808901525160a0880190611226565b5160c08601525160e08501525161010084015251151561012083015251610140820152f35b346101a55760403660031901126101a5576108d56111fb565b335f9081527fac33ff75c19e70fe83507db0d683fd3465c996598dc972688b7ace676c89077b602052604090205460ff1615610975576003546001600160a01b0391821691168114610930576101ec90602435903390611ad8565b60405162461bcd60e51b815260206004820152601c60248201527f43616e6e6f74207265636f7665722076657374696e6720746f6b656e000000006044820152606490fd5b63e2517d3f60e01b5f52336004525f60245260445ffd5b346101a55760403660031901126101a5576024356004356109ab611854565b805f52600560205260405f206109c760ff6009830154166117f6565b6002810180546109db600884015482611a3c565b9015610ae8578511610aa357846109f191611a3c565b929015610a4b577f4d1bbec1e63b3371cbb0beae2c6a11249168a1ab54406d86f6407924e5f98bc29260209255610a348560018060a01b03600354163390611ad8565b600101546040519485526001600160a01b031693a3005b60405162461bcd60e51b815260206004820152602a60248201527f5375627472616374696f6e206f766572666c6f7720696e20746f74616c416d6f604482015269756e742075706461746560b01b6064820152608490fd5b60405162461bcd60e51b815260206004820152601960248201527f496e76616c6964207265766f636174696f6e20616d6f756e74000000000000006044820152606490fd5b60405162461bcd60e51b815260206004820152602e60248201527f5375627472616374696f6e206f766572666c6f7720696e2072656d61696e696e60448201526d6720616d6f756e7420636865636b60901b6064820152608490fd5b346101a5575f3660031901126101a55760206040515f8152f35b346101a55760203660031901126101a557600435610b7a611854565b805f52600560205260405f2090600982018054610b9960ff82166117f6565b610bac6002850154600886015490611a3c565b949015610c18577f9bea1587d7e8bff1a50f8f0462b0b997d90371b0a6e7476013304b90ee6f0d449260209260ff1916905584610bfa57600101546040519485526001600160a01b031693a3005b600354610c1390869033906001600160a01b0316611ad8565b610a34565b60405162461bcd60e51b815260206004820152603460248201527f5375627472616374696f6e206f766572666c6f7720696e2072656d61696e696e60448201527333903a37b5b2b7399031b0b631bab630ba34b7b760611b6064820152608490fd5b346101a55760403660031901126101a557610c936111e5565b6004355f52600260205260405f209060018060a01b03165f52602052602060ff60405f2054166040519015158152f35b346101a55760203660031901126101a5576001600160a01b03610ce46111fb565b165f52600660205260405f206040519081602082549182815201915f5260205f20905f5b818110610d2f57610d2b85610d1f81870382611272565b604051918291826111ac565b0390f35b8254845260209093019260019283019201610d08565b346101a5575f3660031901126101a557610d5d611854565b610d65611b33565b600160ff19815416176001557f62e78cea01bee320cd4e420270b5ea74000d11b0c9f74754ebdbfc544b05a2586020604051338152a1005b346101a5575f3660031901126101a55760206040517fa49807205ce4d355092ef5a8a18f56e8913cf4a201fbe287825b095693c217758152f35b346101a5575f3660031901126101a5576003546040516001600160a01b039091168152602090f35b346101a55760203660031901126101a5576004355f52600560205261016060405f2080549060018060a01b0360018201541690600281015460038201546004830154610e9060ff600586015416600686015492600787015494600888015496600a60ff60098b015416990154996040519b8c5260208c015260408b015260608a0152608089015260a0880190611226565b60c086015260e08501526101008401521515610120830152610140820152f35b346101a5575f3660031901126101a557602060ff600154166040519015158152f35b346101a55760403660031901126101a557610eeb6111fb565b6001600160a01b03165f908152600660205260409020805460243591908210156101a557602091610f1b91611211565b90549060031b1c604051908152f35b346101a5575f3660031901126101a557610f42611854565b60015460ff811615610f815760ff19166001557f5db9ee0a495bf2e6ff9c91a7834c1ba4fdd244a5e8aa4e537bd38aeae4b073aa6020604051338152a1005b638dfc202b60e01b5f5260045ffd5b346101a55760403660031901126101a557610fa96111e5565b336001600160a01b03821603610fc5576101ec90600435611a54565b63334bd91960e11b5f5260045ffd5b346101a55760203660031901126101a5576020610ff26004356112ac565b604051908152f35b346101a55760403660031901126101a5576101ec6004356110196111e5565b906110336101e2825f526002602052600160405f20015490565b6118fd565b346101a55760203660031901126101a5576020610ff26004355f526002602052600160405f20015490565b346101a5575f3660031901126101a5576004545f60015b828110611125575061108b81611294565b906110996040519283611272565b8082526110a8601f1991611294565b013660208301375f9160015b8181106110c95760405180610d2b85826111ac565b805f52600560205260ff600960405f200154166110e9575b6001016110b4565b926110f381611233565b9383518210156111115780602060019360051b8601015290506110e1565b634e487b7160e01b5f52603260045260245ffd5b805f52600560205260ff600960405f20015416611145575b60010161107a565b90611151600191611233565b91905061113d565b346101a55760203660031901126101a5576004359063ffffffff60e01b82168092036101a557602091637965db0b60e01b811490811561119b575b5015158152f35b6301ffc9a760e01b14905083611194565b60206040818301928281528451809452019201905f5b8181106111cf5750505090565b82518452602093840193909201916001016111c2565b602435906001600160a01b03821682036101a557565b600435906001600160a01b03821682036101a557565b8054821015611111575f5260205f2001905f90565b90600282101561058f5752565b5f1981146112415760010190565b634e487b7160e01b5f52601160045260245ffd5b610160810190811067ffffffffffffffff82111761057b57604052565b90601f8019910116810190811067ffffffffffffffff82111761057b57604052565b67ffffffffffffffff811161057b5760051b60200190565b5f52600560205260405f2060ff600982015416156117f1576112d160038201546119a7565b9015611797576112e0906119d8565b90156117975760019190606490046112fd60078301549182611a2b565b901561173c574210611735576113139042611a3c565b90156116d65761132660048301546119a7565b901561166b57611335906119d8565b901561166b576064900490831561160c578181101561158a5760ff600584015416600281101561058f576115565761137660028401546006850154906119f0565b9190156114f057611386916119f0565b9190156114f05761139691611a0e565b90156114905760649004911561142a5760086113b692915b015490611a3c565b90156113bf5790565b60405162461bcd60e51b815260206004820152603b60248201527f5375627472616374696f6e206f766572666c6f7720696e2066696e616c20726560448201527f6c65617361626c6520616d6f756e742063616c63756c6174696f6e00000000006064820152608490fd5b60405162461bcd60e51b815260206004820152603860248201527f4469766973696f6e206f766572666c6f7720696e2066696e616c2072656c656160448201527739b0b136329030b6b7bab73a1031b0b631bab630ba34b7b760411b6064820152608490fd5b60405162461bcd60e51b815260206004820152603260248201527f4469766973696f6e206f766572666c6f7720696e2072656c65617361626c652060448201527130b6b7bab73a1031b0b631bab630ba34b7b760711b6064820152608490fd5b60405162461bcd60e51b815260206004820152603860248201527f4d756c7469706c69636174696f6e206f766572666c6f7720696e2072656c656160448201527739b0b136329030b6b7bab73a1031b0b631bab630ba34b7b760411b6064820152608490fd5b8293506002611567929301546119f0565b9190156114f05761157791611a0e565b9190156114905760086113b692916113ae565b50506115a191506008600282015491015490611a3c565b90156115aa5790565b60405162461bcd60e51b815260206004820152603460248201527f5375627472616374696f6e206f766572666c6f7720696e2072656d61696e696e604482015273339030b6b7bab73a1031b0b631bab630ba34b7b760611b6064820152608490fd5b60405162461bcd60e51b815260206004820152603160248201527f4469766973696f6e206f766572666c6f7720696e2076657374696e672064757260448201527030ba34b7b71031b0b631bab630ba34b7b760791b6064820152608490fd5b60405162461bcd60e51b815260206004820152603760248201527f4d756c7469706c69636174696f6e206f766572666c6f7720696e20766573746960448201527f6e67206475726174696f6e2063616c63756c6174696f6e0000000000000000006064820152608490fd5b60405162461bcd60e51b815260206004820152603160248201527f5375627472616374696f6e206f766572666c6f7720696e2074696d6546726f6d60448201527029ba30b93a1031b0b631bab630ba34b7b760791b6064820152608490fd5b5050505f90565b60405162461bcd60e51b815260206004820152602d60248201527f4164646974696f6e206f766572666c6f7720696e20636c696666456e6454696d60448201526c329031b0b631bab630ba34b7b760991b6064820152608490fd5b60405162461bcd60e51b815260206004820152602c60248201527f4d756c7469706c69636174696f6e206f766572666c6f7720696e20636c69666660448201526b1031b0b631bab630ba34b7b760a11b6064820152608490fd5b505f90565b156117fd57565b60405162461bcd60e51b81526020600482015260136024820152725363686564756c65206e6f742061637469766560681b6044820152606490fd5b600282101561058f5752565b91908110156111115760c0020190565b335f9081527fe5ebfa64fca8d502a8e50c1edffd2c31ef4dad5b396e65d9f397fb028f74abc5602052604090205460ff161561188c57565b63e2517d3f60e01b5f52336004527fa49807205ce4d355092ef5a8a18f56e8913cf4a201fbe287825b095693c2177560245260445ffd5b5f81815260026020908152604080832033845290915290205460ff16156118e75750565b63e2517d3f60e01b5f523360045260245260445ffd5b5f8181526002602090815260408083206001600160a01b038616845290915290205460ff16611983575f8181526002602090815260408083206001600160a01b0395909516808452949091528120805460ff19166001179055339291907f2f8788117e7eff1d82e926ec794901d17c78024a50270940304540a733656f0d9080a4600190565b50505f90565b8115611993570490565b634e487b7160e01b5f52601260045260245ffd5b9081156119d057610c036119be8184029384611989565b036119c95760019190565b5f91508190565b600191505f90565b9081156119d057620151806119be8184029384611989565b91908215611a05576119be8184029384611989565b50600191505f90565b908015611a2357611a1e91611989565b600191565b50505f905f90565b919082019182106119c95760019190565b9190828111611a4c576001920390565b505f91508190565b5f8181526002602090815260408083206001600160a01b038616845290915290205460ff1615611983575f8181526002602090815260408083206001600160a01b0395909516808452949091528120805460ff19169055339291907ff6391f5c32d9c69d2a47ea670b442974b53935d1edc7fd64eb21e047a839171b9080a4600190565b60405163a9059cbb60e01b60208201526001600160a01b039092166024830152604480830193909352918152611b13916102a2606483611272565b565b60025f5414611b245760025f55565b633ee5aeb560e01b5f5260045ffd5b60ff60015416611b3f57565b63d93c066560e01b5f5260045ffd5b9190820391821161124157565b805f52600560205260405f2090611b7860ff6009840154166117f6565b60078201545f8062015180611b8d8442611b4e565b0492611c65611b9c8242611b4e565b611c57604051611bad608082611272565b606081527f203c202d2d2d2d2d2d2d2d2d2d2d2d2d2d2d2d2d2d2d2d2d2d2d2d2d626c6f6360208201527f6b2074696d652c2062742d2073742c2073746d2031206461792d2d2d2d2d2d2d60408201527f2d2d2d2d2d2d2d2d2d2d2d2d2d2d2d2d2d2d2d2d2d2d2d2d2d2d2d2d2d2d2d2d60608201526040519485936359cfcbe360e01b6020860152426024860152604485015260648401526080608484015260a4830190611e8d565b03601f198101835282611272565b6020815191016a636f6e736f6c652e6c6f675afa50600a8301908154811115611e24575f80611c57611cd3604051611c9e604082611272565b600481526363616d6560e01b602082015260405192839163104c13eb60e21b6020840152602060248401526044830190611e8d565b6020815191016a636f6e736f6c652e6c6f675afa50611cf1836112ac565b935f80611d3d611d51604051611d08604082611272565b600481526363616d6560e01b6020820152604051928391632d839cb360e21b6020840152604060248401526064830190611e8d565b8a604483015203601f198101835282611272565b6020815191016a636f6e736f6c652e6c6f675afa5084611d73575b5050505050565b6008810191611d83835487611a2b565b949015610711577fa6c812047c4dc10f52f9e7943b1b3dfafae864d5e0d4ded081bbbde69dd6ff0d946020945555611de3604051611dc2604082611272565b600f81526e203c202d206368656b63207468697360881b8482015286611eb1565b60035460019190910180549091611e089187916001600160a01b039182169116611ad8565b546040519485526001600160a01b031693a35f80808080611d6c565b50505050565b905f602091828151910182855af115611e82575f513d611e7957506001600160a01b0381163b155b611e595750565b635274afe760e01b5f9081526001600160a01b0391909116600452602490fd5b60011415611e52565b6040513d5f823e3d90fd5b805180835260209291819084018484015e5f828201840152601f01601f1916010190565b5f91611ee48392611c5760405193849263643fd0df60e01b60208501526024840152604060448401526064830190611e8d565b6020815191016a636f6e736f6c652e6c6f675afa5056fea2646970667358221220696bda491cbd6a560573e878ad21bcbabf775147e58e0095eaaeccf6c4a2b08964736f6c634300081c0033ac33ff75c19e70fe83507db0d683fd3465c996598dc972688b7ace676c89077b","linkReferences":{}},"methodIdentifiers":{"ADMIN_ROLE()":"75b238fc","DEFAULT_ADMIN_ROLE()":"a217fddf","beneficiarySchedules(address,uint256)":"46ca4241","calculateReleasableAmount(uint256)":"35060e8f","createBatchVestingSchedules((address,uint256,uint256,uint256,uint8,uint256)[])":"c140a499","diamToken()":"6e184e7f","getActiveSchedules()":"0b35a4b0","getBeneficiarySchedules(address)":"8fdd511e","getRoleAdmin(bytes32)":"248a9ca3","getVestingSchedule(uint256)":"beb8f883","grantRole(bytes32,address)":"2f2ff15d","hasRole(bytes32,address)":"91d14854","partialRevoke(uint256,uint256)":"a5d94c13","pause()":"8456cb59","paused()":"5c975abb","processTokenReleases(uint256[])":"ed38c9ac","recoverToken(address,uint256)":"b29a8140","renounceRole(bytes32,address)":"36568abe","revokeRole(bytes32,address)":"d547741f","revokeSchedule(uint256)":"96577206","supportsInterface(bytes4)":"01ffc9a7","unpause()":"3f4ba83a","vestingSchedules(uint256)":"6d3cbe21"},"id":42}