{"abi":[{"type":"constructor","inputs":[{"name":"_tokenAddress","type":"address","internalType":"address"}],"stateMutability":"nonpayable"},{"type":"function","name":"ADMIN_ROLE","inputs":[],"outputs":[{"name":"","type":"bytes32","internalType":"bytes32"}],"stateMutability":"view"},{"type":"function","name":"beneficiarySchedules","inputs":[{"name":"","type":"address","internalType":"address"},{"name":"","type":"uint256","internalType":"uint256"}],"outputs":[{"name":"","type":"uint256","internalType":"uint256"}],"stateMutability":"view"},{"type":"function","name":"createBatchVestingSchedules","inputs":[{"name":"_params","type":"tuple[]","internalType":"struct DIAMVesting.BatchVestingParams[]","components":[{"name":"beneficiary","type":"address","internalType":"address"},{"name":"totalAmount","type":"uint256","internalType":"uint256"},{"name":"cliffPeriod","type":"uint256","internalType":"uint256"},{"name":"vestingPeriod","type":"uint256","internalType":"uint256"},{"name":"vestingType","type":"uint8","internalType":"enum DIAMVesting.VestingType"},{"name":"releasePercentage","type":"uint256","internalType":"uint256"}]}],"outputs":[],"stateMutability":"nonpayable"},{"type":"function","name":"diamToken","inputs":[],"outputs":[{"name":"","type":"address","internalType":"contract IERC20"}],"stateMutability":"view"},{"type":"function","name":"getBeneficiarySchedules","inputs":[{"name":"_beneficiary","type":"address","internalType":"address"}],"outputs":[{"name":"","type":"uint256[]","internalType":"uint256[]"}],"stateMutability":"view"},{"type":"function","name":"owner","inputs":[],"outputs":[{"name":"","type":"address","internalType":"address"}],"stateMutability":"view"},{"type":"function","name":"partialRevoke","inputs":[{"name":"_scheduleId","type":"uint256","internalType":"uint256"},{"name":"_amount","type":"uint256","internalType":"uint256"}],"outputs":[],"stateMutability":"nonpayable"},{"type":"function","name":"paused","inputs":[],"outputs":[{"name":"","type":"bool","internalType":"bool"}],"stateMutability":"view"},{"type":"function","name":"processTokenReleases","inputs":[{"name":"_scheduleIds","type":"uint256[]","internalType":"uint256[]"}],"outputs":[],"stateMutability":"nonpayable"},{"type":"function","name":"renounceOwnership","inputs":[],"outputs":[],"stateMutability":"nonpayable"},{"type":"function","name":"revokeSchedule","inputs":[{"name":"_scheduleId","type":"uint256","internalType":"uint256"}],"outputs":[],"stateMutability":"nonpayable"},{"type":"function","name":"transferOwnership","inputs":[{"name":"newOwner","type":"address","internalType":"address"}],"outputs":[],"stateMutability":"nonpayable"},{"type":"function","name":"vestingSchedules","inputs":[{"name":"","type":"uint256","internalType":"uint256"}],"outputs":[{"name":"scheduleId","type":"uint256","internalType":"uint256"},{"name":"beneficiary","type":"address","internalType":"address"},{"name":"totalAmount","type":"uint256","internalType":"uint256"},{"name":"cliffPeriod","type":"uint256","internalType":"uint256"},{"name":"vestingPeriod","type":"uint256","internalType":"uint256"},{"name":"vestingType","type":"uint8","internalType":"enum DIAMVesting.VestingType"},{"name":"releasePercentage","type":"uint256","internalType":"uint256"},{"name":"startTime","type":"uint256","internalType":"uint256"},{"name":"releasedAmount","type":"uint256","internalType":"uint256"},{"name":"isActive","type":"bool","internalType":"bool"},{"name":"lastProcessedDay","type":"uint256","internalType":"uint256"}],"stateMutability":"view"},{"type":"event","name":"OwnershipTransferred","inputs":[{"name":"previousOwner","type":"address","indexed":true,"internalType":"address"},{"name":"newOwner","type":"address","indexed":true,"internalType":"address"}],"anonymous":false},{"type":"event","name":"PartialRevocation","inputs":[{"name":"scheduleId","type":"uint256","indexed":true,"internalType":"uint256"},{"name":"beneficiary","type":"address","indexed":true,"internalType":"address"},{"name":"amount","type":"uint256","indexed":false,"internalType":"uint256"}],"anonymous":false},{"type":"event","name":"Paused","inputs":[{"name":"account","type":"address","indexed":false,"internalType":"address"}],"anonymous":false},{"type":"event","name":"TokensReleased","inputs":[{"name":"scheduleId","type":"uint256","indexed":true,"internalType":"uint256"},{"name":"beneficiary","type":"address","indexed":true,"internalType":"address"},{"name":"amount","type":"uint256","indexed":false,"internalType":"uint256"}],"anonymous":false},{"type":"event","name":"Unpaused","inputs":[{"name":"account","type":"address","indexed":false,"internalType":"address"}],"anonymous":false},{"type":"event","name":"VestingScheduleCreated","inputs":[{"name":"scheduleId","type":"uint256","indexed":true,"internalType":"uint256"},{"name":"beneficiary","type":"address","indexed":true,"internalType":"address"},{"name":"totalAmount","type":"uint256","indexed":false,"internalType":"uint256"},{"name":"cliffPeriod","type":"uint256","indexed":false,"internalType":"uint256"},{"name":"vestingPeriod","type":"uint256","indexed":false,"internalType":"uint256"},{"name":"vestingType","type":"uint8","indexed":false,"internalType":"enum DIAMVesting.VestingType"},{"name":"releasePercentage","type":"uint256","indexed":false,"internalType":"uint256"}],"anonymous":false},{"type":"event","name":"VestingScheduleRevoked","inputs":[{"name":"scheduleId","type":"uint256","indexed":true,"internalType":"uint256"},{"name":"beneficiary","type":"address","indexed":true,"internalType":"address"},{"name":"amount","type":"uint256","indexed":false,"internalType":"uint256"}],"anonymous":false},{"type":"error","name":"EnforcedPause","inputs":[]},{"type":"error","name":"ExpectedPause","inputs":[]},{"type":"error","name":"OwnableInvalidOwner","inputs":[{"name":"owner","type":"address","internalType":"address"}]},{"type":"error","name":"OwnableUnauthorizedAccount","inputs":[{"name":"account","type":"address","internalType":"address"}]},{"type":"error","name":"ReentrancyGuardReentrantCall","inputs":[]},{"type":"error","name":"SafeERC20FailedOperation","inputs":[{"name":"token","type":"address","internalType":"address"}]}],"bytecode":{"object":"0x60803461013857601f61118e38819003918201601f19168301916001600160401b0383118484101761013c5780849260209460405283398101031261013857516001600160a01b038116908190036101385760015f556001543315610125576001600160a81b0319811633600881811b610100600160a81b0316929092176001556040519290911c6001600160a01b03167f8be0079c531659141344cd1fd0a4f28419497f9722a3daafe3b4186f6b6457e05f80a3600160035581156100e35750600280546001600160a01b03191691909117905560405161103d90816101518239f35b62461bcd60e51b815260206004820152601c60248201527f546f6b656e20616464726573732063616e6e6f74206265207a65726f000000006044820152606490fd5b631e4fbdf760e01b5f525f60045260245ffd5b5f80fd5b634e487b7160e01b5f52604160045260245ffdfe60806040526004361015610011575f80fd5b5f3560e01c806346ca424114610ccd5780635c975abb14610cab5780636d3cbe2114610bfa5780636e184e7f14610bd2578063715018a614610b7357806375b238fc14610b395780638da5cb5b14610b0d5780638fdd511e14610a59578063965772061461093d578063a5d94c1314610785578063c140a499146103d4578063ed38c9ac146101455763f2fde38b146100a8575f80fd5b34610141576020366003190112610141576100c1610d25565b6100c9610df5565b6001600160a01b03811690811561012e5760018054610100600160a81b03198116600893841b610100600160a81b031617909155901c6001600160a01b03167f8be0079c531659141344cd1fd0a4f28419497f9722a3daafe3b4186f6b6457e05f80a3005b631e4fbdf760e01b5f525f60045260245ffd5b5f80fd5b346101415760203660031901126101415760043567ffffffffffffffff8111610141573660238201121561014157806004013567ffffffffffffffff8111610141576024820191602436918360051b010111610141576101a3610e74565b60ff600154166103c5575f5b8181106101bc5760015f55005b5f806101c9838587610de5565b35610231604051916101dc604084610d71565b600e83526d081c1c9bd8d95cdcda5b99c8125160921b602084015261022360405193849263643fd0df60e01b60208501526024840152604060448401526064830190610eb3565b03601f198101835282610d71565b6020815191016a636f6e736f6c652e6c6f675afa50610251818385610de5565b355f52600460205260405f20906001820160018060a01b03815416905f80604051636d786a5560e11b60208201523360248201528460448201526044815261029a606482610d71565b6020815191016a636f6e736f6c652e6c6f675afa5081330361038f57836102c960ff6009600197015416610d93565b5f8060405163161765e160e11b6020820152336024820152602481526102f0604482610d71565b6020815191016a636f6e736f6c652e6c6f675afa5061030e81610f47565b928361031f575b50505050016101af565b816103738560209360087fa6c812047c4dc10f52f9e7943b1b3dfafae864d5e0d4ded081bbbde69dd6ff0d9601610357838254610e92565b9055620151804204600a850155898060a01b0360025416610e37565b5492868060a01b0390541693604051908152a384808080610315565b60405162461bcd60e51b815260206004820152600e60248201526d155b985d5d19595a1bdc9a5e995960921b6044820152606490fd5b63d93c066560e01b5f5260045ffd5b346101415760203660031901126101415760043567ffffffffffffffff8111610141573660238201121561014157806004013567ffffffffffffffff81116101415760248201916024369160c0840201011161014157610432610e74565b61043a610df5565b5f805b828210610762576002546040516323b872dd60e01b602082015233602482015230604482015260648082019390935291825261048d92506001600160a01b0316610488608483610d71565b610ed7565b5f5b81811061049c5760015f55005b6104a7818385610dd5565b906003545f19811461074e57600181016003555f806104c585610e9f565b610521604051916104d7604084610d71565b6009835268203c20302d302d302d60b81b602084015261022360405193849263759f86bb60e01b602085015260018060a01b03166024840152604060448401526064830190610eb3565b6020815191016a636f6e736f6c652e6c6f675afa5061053f83610e9f565b9060208401359160408501359460608101359560808201359260028410156101415760405160a084013591610160820167ffffffffffffffff81118382101761072657604052868252602082019060018060a01b03168152866040830191898352606084019286845260808501938d855260a08601948a865260c087019088825260e08801924284526101008901945f86526101208a0196600188526101408b01985f8a525f52600460205260405f209a518b5560018b019060018060a01b039051166bffffffffffffffffffffffff60a01b8254161790555160028a015551600389015551600488015560058701955195600287101561073a57600a9660ff80198354169116179055516006870155516007860155516008850155600984019051151560ff801983541691161790555191015560018060a01b0361068384610e9f565b165f52600560205260405f2080549468010000000000000000861015610726576001996106f860a0966106df89610713968f7fbeecc780efa76a91b345deda9fe641ddbf40ee12dd86c41c78300cdc29d94fde9c018155610d3b565b81549060031b908c821b915f19901b1916179055610e9f565b94604051998a5260208a015260408901526060880190610d64565b60808601528680831b031693a30161048f565b634e487b7160e01b5f52604160045260245ffd5b634e487b7160e01b5f52602160045260245ffd5b634e487b7160e01b5f52601160045260245ffd5b61077d6001916020610775858789610dd5565b013590610e92565b91019061043d565b34610141576040366003190112610141576024356004356107a4610df5565b805f52600460205260405f206107c060ff600983015416610d93565b6002810180546107d4600884015482610e1f565b90156108e157851161089c57846107ea91610e1f565b929015610844577f4d1bbec1e63b3371cbb0beae2c6a11249168a1ab54406d86f6407924e5f98bc2926020925561082d8560018060a01b03600254163390610e37565b600101546040519485526001600160a01b031693a3005b60405162461bcd60e51b815260206004820152602a60248201527f5375627472616374696f6e206f766572666c6f7720696e20746f74616c416d6f604482015269756e742075706461746560b01b6064820152608490fd5b60405162461bcd60e51b815260206004820152601960248201527f496e76616c6964207265766f636174696f6e20616d6f756e74000000000000006044820152606490fd5b60405162461bcd60e51b815260206004820152602e60248201527f5375627472616374696f6e206f766572666c6f7720696e2072656d61696e696e60448201526d6720616d6f756e7420636865636b60901b6064820152608490fd5b3461014157602036600319011261014157600435610959610df5565b805f52600460205260405f209060098201805461097860ff8216610d93565b61098b6002850154600886015490610e1f565b9490156109f7577f9bea1587d7e8bff1a50f8f0462b0b997d90371b0a6e7476013304b90ee6f0d449260209260ff19169055846109d957600101546040519485526001600160a01b031693a3005b6002546109f290869033906001600160a01b0316610e37565b61082d565b60405162461bcd60e51b815260206004820152603460248201527f5375627472616374696f6e206f766572666c6f7720696e2072656d61696e696e60448201527333903a37b5b2b7399031b0b631bab630ba34b7b760611b6064820152608490fd5b34610141576020366003190112610141576001600160a01b03610a7a610d25565b165f52600560205260405f20604051806020835491828152019081935f5260205f20905f5b818110610af75750505081610ab5910382610d71565b604051918291602083019060208452518091526040830191905f5b818110610ade575050500390f35b8251845285945060209384019390920191600101610ad0565b8254845260209093019260019283019201610a9f565b34610141575f3660031901126101415760015460405160089190911c6001600160a01b03168152602090f35b34610141575f3660031901126101415760206040517fa49807205ce4d355092ef5a8a18f56e8913cf4a201fbe287825b095693c217758152f35b34610141575f36600319011261014157610b8b610df5565b60018054610100600160a81b031981169091555f9060081c6001600160a01b03167f8be0079c531659141344cd1fd0a4f28419497f9722a3daafe3b4186f6b6457e08280a3005b34610141575f366003190112610141576002546040516001600160a01b039091168152602090f35b34610141576020366003190112610141576004355f52600460205261016060405f2080549060018060a01b0360018201541690600281015460038201546004830154610c8b60ff600586015416600686015492600787015494600888015496600a60ff60098b015416990154996040519b8c5260208c015260408b015260608a0152608089015260a0880190610d64565b60c086015260e08501526101008401521515610120830152610140820152f35b34610141575f36600319011261014157602060ff600154166040519015158152f35b3461014157604036600319011261014157610ce6610d25565b6001600160a01b03165f9081526005602052604090208054602435919082101561014157602091610d1691610d3b565b90549060031b1c604051908152f35b600435906001600160a01b038216820361014157565b8054821015610d50575f5260205f2001905f90565b634e487b7160e01b5f52603260045260245ffd5b90600282101561073a5752565b90601f8019910116810190811067ffffffffffffffff82111761072657604052565b15610d9a57565b60405162461bcd60e51b81526020600482015260136024820152725363686564756c65206e6f742061637469766560681b6044820152606490fd5b9190811015610d505760c0020190565b9190811015610d505760051b0190565b60015460081c6001600160a01b03163303610e0c57565b63118cdaa760e01b5f523360045260245ffd5b9190828111610e2f576001920390565b505f91508190565b60405163a9059cbb60e01b60208201526001600160a01b039092166024830152604480830193909352918152610e7291610488606483610d71565b565b60025f5414610e835760025f55565b633ee5aeb560e01b5f5260045ffd5b9190820180921161074e57565b356001600160a01b03811681036101415790565b805180835260209291819084018484015e5f828201840152601f01601f1916010190565b905f602091828151910182855af115610f2f575f513d610f2657506001600160a01b0381163b155b610f065750565b635274afe760e01b5f9081526001600160a01b0391909116600452602490fd5b60011415610eff565b6040513d5f823e3d90fd5b9190820391821161074e57565b600781015490600381015462278d0081029080820462278d00149015171561074e57610f739083610e92565b42106110015760048101549162278d0083029280840462278d00149015171561074e57610fa09042610f3a565b82811015610feb57600282015481810291818304149015171561074e578215610fd757610fd4926008910491015490610f3a565b90565b634e487b7160e01b5f52601260045260245ffd5b50610fd491506008600282015491015490610f3a565b50505f9056fea2646970667358221220849a138691704e474183f68a4f60f5611678a6e85dc55d156d359ed98c05385764736f6c634300081c0033","linkReferences":{}},"methodIdentifiers":{"ADMIN_ROLE()":"75b238fc","beneficiarySchedules(address,uint256)":"46ca4241","createBatchVestingSchedules((address,uint256,uint256,uint256,uint8,uint256)[])":"c140a499","diamToken()":"6e184e7f","getBeneficiarySchedules(address)":"8fdd511e","owner()":"8da5cb5b","partialRevoke(uint256,uint256)":"a5d94c13","paused()":"5c975abb","processTokenReleases(uint256[])":"ed38c9ac","renounceOwnership()":"715018a6","revokeSchedule(uint256)":"96577206","transferOwnership(address)":"f2fde38b","vestingSchedules(uint256)":"6d3cbe21"},"id":39}