{"abi":[{"type":"function","name":"getString","inputs":[],"outputs":[{"name":"","type":"bytes","internalType":"bytes"}],"stateMutability":"view"},{"type":"function","name":"setString","inputs":[{"name":"_string","type":"bytes","internalType":"bytes"}],"outputs":[],"stateMutability":"nonpayable"},{"type":"function","name":"storedString","inputs":[],"outputs":[{"name":"","type":"bytes","internalType":"bytes"}],"stateMutability":"view"}],"bytecode":{"object":"0x6080604052348015600e575f5ffd5b506104188061001c5f395ff3fe608060405234801561000f575f5ffd5b506004361061003f575f3560e01c806302dd56d01461004357806389ea642f14610061578063b4d07e8114610069575b5f5ffd5b61004b61007e565b60405161005891906101a7565b60405180910390f35b61004b610109565b61007c6100773660046101f0565b610198565b005b5f805461008a906102a3565b80601f01602080910402602001604051908101604052809291908181526020018280546100b6906102a3565b80156101015780601f106100d857610100808354040283529160200191610101565b820191905f5260205f20905b8154815290600101906020018083116100e457829003601f168201915b505050505081565b60605f8054610117906102a3565b80601f0160208091040260200160405190810160405280929190818152602001828054610143906102a3565b801561018e5780601f106101655761010080835404028352916020019161018e565b820191905f5260205f20905b81548152906001019060200180831161017157829003601f168201915b5050505050905090565b5f6101a38282610327565b5050565b602081525f82518060208401528060208501604085015e5f604082850101526040601f19601f83011684010191505092915050565b634e487b7160e01b5f52604160045260245ffd5b5f60208284031215610200575f5ffd5b813567ffffffffffffffff811115610216575f5ffd5b8201601f81018413610226575f5ffd5b803567ffffffffffffffff811115610240576102406101dc565b604051601f8201601f19908116603f0116810167ffffffffffffffff8111828210171561026f5761026f6101dc565b604052818152828201602001861015610286575f5ffd5b816020840160208301375f91810160200191909152949350505050565b600181811c908216806102b757607f821691505b6020821081036102d557634e487b7160e01b5f52602260045260245ffd5b50919050565b601f82111561032257805f5260205f20601f840160051c810160208510156103005750805b601f840160051c820191505b8181101561031f575f815560010161030c565b50505b505050565b815167ffffffffffffffff811115610341576103416101dc565b6103558161034f84546102a3565b846102db565b6020601f821160018114610387575f83156103705750848201515b5f19600385901b1c1916600184901b17845561031f565b5f84815260208120601f198516915b828110156103b65787850151825560209485019460019092019101610396565b50848210156103d357868401515f19600387901b60f8161c191681555b50505050600190811b0190555056fea264697066735822122068fb7e0ebfaba2c73a5e0e4cd1341f45efc0fac6e8d3c99ab548409ee03f409464736f6c634300081c0033","linkReferences":{}},"methodIdentifiers":{"getString()":"89ea642f","setString(bytes)":"b4d07e81","storedString()":"02dd56d0"},"id":23}